:020000040800F2
:10000000780B00206D550008E9010008EB0100089D
:10001000EF010008F3010008F701000800000000EC
:10002000000000000000000000000000FB010008CC
:10003000FD01000800000000FF01000801020008A7
:100040008755000887550008875500088755000820
:100050008755000887550008875500088755000810
:100060008755000887550008BD0600088755000819
:1000700087550008875500088755000887550008F0
:100080006F4C000887550008875500088755000801
:100090008755000887550008875500080F07000896
:1000A00087550008875500088755000887550008C0
:1000B00089440008B15000087144000887550008C1
:1000C00087550008875500088755000887550008A0
:1000D00087550008BB490008A94C0008E3540008F4
:1000E0008755000887550008875500088755000880
:1000F0008755000887550008875500088755000870
:10010000875500088755000887550008875500085F
:10011000875500088755000887550008875500084F
:10012000875500088755000887550008875500083F
:10013000DFF810D007F070FD0048004749010008C3
:10014000AFF30080780B00204FF4A06005F0A4FF0F
:1001500005F00AF903F051FF00F074FA02F013FD04
:1001600003F0A7FF4FF4E13004F0B6FC08E018A25A
:100170000121022003F079FE40F2DC5005F031F954
:1001800002F014FB0028F2D1002141F61F4003F0D9
:10019000D5FF472140F2CF7004F056FF04F0BEF8BF
:1001A00004F005F90EA20121032003F05EFE4FF4D6
:1001B000FA7005F016F903F07CFF04F018FF04F064
:1001C0002DFE04F0FBFD01E004F020FFFCE7000041
:1001D0006D7075363035302E2E2E2E2E000000001C
:1001E00066696E7368000000704700BFFEE700BFDD
:1001F000FEE700BFFEE700BFFEE7704770477047AD
:10020000704700000CB50020019000906C48006819
:1002100040F480306A49086000BF6948006800F413
:10022000003000900198401C0190009818B9019886
:10023000B0F5A06FF1D16248006800F4003010B151
:100240000120009001E0002000900098012843D197
:100250005C48006840F010005A4908600846006891
:1002600020F0030008600846006840F002000860C3
:10027000534840685249486008464068486008460C
:10028000406840F4806048600846406820F47C1074
:1002900048600846406840F4E81048600846006836
:1002A00040F08070086000BF4548006800F00070B2
:1002B0000028F9D04248406820F0030040494860D7
:1002C0000846406840F00200486000BF3C48406873
:1002D00000F00C000828F9D10CBD10B5FFF792FF13
:1002E00010BD10B53648006840F001003449086080
:1002F000084640683449084031494860084600686B
:10030000324908402E4908600846006820F48020E1
:1003100008600846406820F4FE0048604FF41F0063
:100320008860FFF7DAFF4FF000602949086010BDD0
:1003300010B5002100200022214B5B6803F00C0166
:1003400021B1042906D0082928D107E0214B224CED
:10035000236027E01F4B204C236023E0184B5B6891
:1003600003F47010164B5B6803F48032022303EB36
:10037000904022B9194B4343174C23600DE0104BBA
:100380005B6803F4003323B1144B4343124C2360E6
:1003900003E0104B4343104C236003E00D4B0E4C25
:1003A000236000BF00BF064B5B68C3F303130C4C14
:1003B000E15C094B1B68CB40074C236010BD00007B
:1003C00000100240002002400000FFF8FFFFF6FE90
:1003D00008ED00E000127A000000002000093D0056
:1003E0000400002010B5022004F0D7FF10BD08B5AE
:1003F0000121084605F0E8FB01218E4805F0F9F9D6
:100400000121082005F0E0FB1820ADF800001020C5
:100410008DF8030003208DF802006946864805F038
:1004200017F91821844805F0C0F908BD10B58248B5
:10043000006820F47040804908600846006840F475
:100440004050086001207D4908607D49C1F8900155
:10045000FFF7C8FF002079490860FFF7C3FF0020BD
:100460007749C1F8900110BD10B57348006820F4B9
:100470007040714908600846006840F440500860C8
:1004800000206E49091D08606D49C1F88C01FFF715
:10049000A9FF01206949091D08606949C1F88C015B
:1004A000FFF7A0FF10BD10B500246348006820F4DA
:1004B0007040614908600846006840F400400860E8
:1004C00001205E490860FFF78DFF01205C49C1F8FB
:1004D0009001FFF787FF07E0601CC4B2FA2C03DD30
:1004E000FFF7C2FF012010BD544880380068002883
:1004F000F2D15249091D086000BFF4E710B5002091
:100500004E49091D08604C48006820F470404A4973
:1005100008600846006840F44050086000204849E0
:10052000C1F88C01FFF75EFF01204449091D0860F6
:10053000FFF758FF00204249C1F8900110BD10B5E7
:1005400000203E49091D08603B48006820F47040C7
:10055000394908600846006840F4405008600120AE
:100560003749C1F88C01FFF73DFF01203349091DD0
:100570000860FFF737FF00203149C1F8900110BD36
:1005800070B504462C48006820F470402A49086081
:100590000846006840F44050086000202749091DC3
:1005A0000860002512E0E009244908606006040E96
:1005B00001202349C1F89001FFF714FF00201F49D3
:1005C000091D0860FFF70EFF681CC5B2082DEADBA5
:1005D00070BD70B5054600241748006820F47040CF
:1005E000154908600846006840F40040086000268D
:1005F00015E000201149091D0860FFF7F3FE0120F6
:100600000F49C1F890016006040E0C48803800685C
:1006100008B1601CC4B2FFF7E5FE701CC6B2082E1C
:10062000E7DB15B9FFF78BFF01E0FFF767FF204617
:1006300070BD000000023000000C01408C8121429E
:10064000008021421FB50121042005F0BDFA0121DF
:10065000084605F0B9FAF020ADF80C0048208DF8F6
:100660000F0003A9594804F0F3FFF0200090012087
:100670008DF8060000208DF804000C208DF8050090
:10068000684606F093FC0A208DF8080001208DF8DA
:100690000B008DF809008DF80A0002A805F001FD95
:1006A00017208DF8080001208DF80B008DF8090047
:1006B0008DF80A0002A805F0F4FC1FBD2DE9F041F9
:1006C000102006F0D9FC01281FD14148007818B944
:1006D00001203F494870087010213C4805F04BF854
:1006E00098B93B48007880B13A49086807F0F4F8B7
:1006F0000646394A394B06F01BFF044607F030F92D
:1007000034490860102006F0C8FCBDE8F0812DE9EE
:10071000F041202006F0B0FC012818D120212B4800
:1007200005F029F880B92A48007868B12949086895
:1007300007F0D2F80646284A284B06F09AFF0446EE
:1007400007F00EF923490860202006F0A6FC40209F
:1007500006F092FC012818D140211C4805F00BF846
:1007600098B91B48007880B11A49486807F0B4F876
:1007700006461B4A1B4B06F0DBFE044607F0F0F86A
:1007800014494860402006F088FC802006F074FC84
:10079000012818D180210D4804F0EDFF80B90C48E4
:1007A000007868B10B49486807F096F806460C4A8D
:1007B0000C4B06F05EFF044607F0D2F8054948608E
:1007C000802006F06AFCBDE8F081000000080140CE
:1007D00088060020600500207B14AE47E17A843F44
:1007E000FCA9F1D24D62503F38B50446F74890F865
:1007F0002400C0B114B10220009001E0002000905C
:10080000F24A1268D17BF14A526810786B46012295
:1008100002F019FB10B14FF0FF3038BD9DF8001009
:10082000EA48417423E0E948807A10B94FF0FF307C
:10083000F3E724B1E548407C08B10020EDE714B1AE
:100840000120009001E000200090E04A1268D17B76
:10085000DE4A526810786B46012202F0F4FA10B1B9
:100860004FF0FF30D9E79DF80010D84841740020C0
:10087000D3E738B500241FE0D4480068C07AA0420E
:1008800004D0D2480068407DA04200D112E0CF4998
:10089000496808786B460122214602F0B6F910B18A
:1008A0004FF0FF3038BD9DF800202146C8A007F06A
:1008B00027FA00BF601CC4B2C44840680079A04257
:1008C000DADC0020EEE770B504460D46BF4800684C
:1008D000C07AA04204D0BD480068407DA04202D149
:1008E0004FF0FF3070BDB94840680079A04202DC8B
:1008F0004FF0FF30F6E7B549496808782B460122EA
:10090000214602F082F9EDE738B50446AF4890F889
:100910002300A04201D1002038BD14B13020009046
:1009200001E000200090A948807C20B19DF80000E3
:1009300040F002000090A54890F8220020B19DF8F8
:10094000000040F080000090A04A1268117D9F4A8C
:10095000526810786B46012202F075FA10B14FF020
:10096000FF30D9E7994880F823400020D4E738B514
:10097000044604F0700010B10120009005E014B1AD
:100980000020009001E040200090904A1268917C85
:100990008E4A526810786B46012202F054FA20B158
:1009A00000218A488172481E38BD9DF8000020F061
:1009B0004001864801730020009004F0400020B9F7
:1009C0009DF8000040F00400009004F0200020B9E1
:1009D0009DF8000040F00200009004F0100020B9E3
:1009E0009DF8000040F00100009004F0080020B9DC
:1009F0009DF8000040F038000090744A1268D17CE5
:100A0000724A526810786B46012202F01CFA20B13B
:100A100000216E488172481EC6E724B1082C02D01E
:100A20000020FFF771FF69488472002101753220B0
:100A300004F0D7FC0020B7E738B504466348807C53
:100A4000A04201D1002038BD002C46D05F4A126878
:100A500011795E4A526810786B46012202F0D5F88F
:100A600010B14FF0FF30EEE79DF8000020F02000BD
:100A70000090564A12681179544A526810786B46B1
:100A8000012202F0E0F910B14FF0FF30DBE7032064
:100A900004F0A7FC022000904C4890F8220020B1FE
:100AA0009DF8000040F080000090484890F8230036
:100AB00020B19DF8000040F030000090434A1268D9
:100AC000117D424A526810786B46012202F0BBF950
:100AD000002851D04FF0FF30B5E73C4A1268117939
:100AE0003A4A526810786B46012202F08EF810B133
:100AF0004FF0FF30A7E73548807A00F0010028B1B9
:100B00009DF8000040F02000009004E09DF80000F7
:100B100020F0200000902D4A126811792B4A52686B
:100B200010786B46012202F08EF910B14FF0FF30C1
:100B300089E7032004F055FC244890F8220010B106
:100B40008020009001E000200090204890F82300D1
:100B500020B19DF8000040F0300000901B4A126860
:100B6000117D1A4A526810786B46012202F06BF927
:100B700010B14FF0FF3066E714488474002062E73C
:100B800008B51248807A10B94FF0FF3008BD002038
:100B900000900E4A1268D17B0C4A526810786B465E
:100BA000012202F050F910B14FF0FF30EEE7074A92
:100BB00012685179054A526810786B46012202F09A
:100BC00042F968B14FF0FF30E0E700001400002068
:100BD000252335783A20252335780D0A00000000BA
:100BE000F84A12681179F74A526810786B46012268
:100BF00002F029F910B14FF0FF30C7E7F14890F843
:100C00002400002853D00C200090EE4A126811797D
:100C1000EC4A526810786B46012202F014F910B1C8
:100C20004FF0FF30B2E7322004F0DBFBC020009031
:100C3000E448807A00F0010020B19DF8000040F007
:100C400020000090DF4A12681179DE4A526810785D
:100C50006B46012202F0F7F810B14FF0FF3095E734
:100C6000D848407C10B10220009001E000200090A4
:100C7000D44A1268D17BD34A526810786B4601225D
:100C800002F0E1F810B14FF0FF307FE70020009054
:100C9000CC4A12685179CB4A526810786B460122CF
:100CA00002F0D1F8002855D04FF0FF306EE7042055
:100CB0000090C44A12681179C24A526810786B4693
:100CC000012202F0C0F810B14FF0FF305EE7BD48DE
:100CD000807C20B9BB48807A00F0010010B9402028
:100CE000009001E060200090B64A12681179B54A80
:100CF000526810786B46012202F0A5F810B14FF04F
:100D0000FF3043E7322004F06CFBAE48407C10B16A
:100D10000120009001E000200090AA4A1268D17BD7
:100D2000A84A526810786B46012202F08CF810B184
:100D30004FF0FF302AE7A34A12685179A14A52685E
:100D40001078A04B1033012202F07DF810B14FF063
:100D5000FF301BE7002019E770B50446002624F099
:100D60000104984890F8240008B1002070BD95480F
:100D7000807A10B94FF0FF30F8E79248057C807A0E
:100D80002040904908740846007CA04202D04FF0F1
:100D9000FF3600E0002614B98A48007D18B1012012
:100DA000FFF722FD02E00020FFF71EFD3CB1FFF738
:100DB000E7FE20B1834805744FF0FF30D6E7304698
:100DC000D4E738B504467F48807A10B94FF0FF3039
:100DD00038BDBC2C02DB0120009015E0622C02DB48
:100DE0000220009010E02A2C02DB032000900BE090
:100DF000142C02DB0420009006E00A2C02DB052004
:100E0000009001E0062000906E48C07A9DF8001026
:100E1000884201D10020DBE76A4A12689178694A6A
:100E2000526810786B46012202F00DF810B14FF0B5
:100E3000FF30CDE79DF800106248C1720020C7E77F
:100E400038B50446282C02DD4FF0FF3038BDDCB940
:100E50000020FFF759FD00208DF8000007208DF8D5
:100E60000100584A1268917C564A526810786B46C5
:100E7000022201F0E8FF10B14FF0FF30E6E7002159
:100E8000504801750020E1E70120FFF73DFD2020DB
:100E90008DF80000012C06D100208DF801000520FE
:100EA000FFF78FFF17E0052C06DC01208DF801000D
:100EB0000520FFF786FF0EE0142C06DC02208DF8DB
:100EC00001000A20FFF77DFF05E003208DF80100F7
:100ED0001420FFF776FF9DF80100072101EB801039
:100EE000C0B28DF80100374A1268917C354A5268C9
:100EF00010786B46022201F0A6FF10B14FF0FF30D0
:100F0000A4E708212F488172002101730121017596
:100F10000020FFF721FF002098E738B50446294854
:100F2000807A10B94FF0FF3038BD264890F8240081
:100F300010B14FF0FF30F7E72248007D50B134B1D7
:100F4000282C04DCE0B2FFF77BFF0020ECE7002058
:100F5000FFF776FF042C01DA042404E0B4F57A7F6D
:100F600001DD4FF47A744FF47A7090FBF4F0401E78
:100F7000C0B20090134A12685178124A5268107831
:100F80006B46012201F05FFF10B14FF0FF30CBE75D
:100F90009DF80000401C4FF47A7191FBF0F081B293
:100FA0000848C1810146C9894810FFF70AFF00209F
:100FB000BAE738B504460348807A28B94FF0FF30C5
:100FC00038BD000014000020022C06D0042C07D0ED
:100FD000082C08D0102C0CD108E0002000900BE069
:100FE0000820009008E01020009005E018200090F4
:100FF00002E04FF0FF30E3E700BFF948407A9DF888
:101000000010B0EBE10F01D10020D9E7F44A1268DB
:10101000D179F34A526810786B46012201F013FF30
:1010200010B14FF0FF30CBE79DF80000C110EC4845
:1010300041720020C4E738B50446E948807A10B907
:101040004FF0FF3038BDFA2C09D0B4F5FA7F09D043
:10105000B4F57A7F09D0B4F5FA6F0CD108E000201E
:1010600000900BE00820009008E01020009005E0C0
:101070001820009002E04FF0FF30E3E700BFD848AF
:10108000007A9DF80010B0EBE10F01D10020D9E704
:10109000D34A12689179D24A526810786B4601227D
:1010A00001F0D1FE10B14FF0FF30CBE79DF800000A
:1010B000C010CB4908720020C4E71CB580208DF811
:1010C0000000C74A1268917CC54A526810786B4686
:1010D000012201F0B8FE10B14FF0FF301CBD6420BA
:1010E00004F07FF900208DF80000BD4A1268917C61
:1010F000BB4A526810786B46012201F0A4FE10B181
:101100004FF0FF30EAE7B64A1268917DB44A526860
:1011100010786B46062201F078FD10B14FF0FF30D9
:10112000DCE79DF80500C007400F9DF8031001F0B3
:10113000010140EA41009DF8011001F0010140EA7F
:10114000010494B1012C03D10121A548C17431E0FF
:10115000022C03D10021A248C1742BE02146A1A09A
:1011600006F0CEFD4FF0FF30B8E79D4A1268D17807
:101170009B4A526810786B46012201F046FD10B17F
:101180004FF0FF30AAE79DF8000000F00F042CB9E3
:101190009E4806F0B5FD4FF0FF309FE7042C06D1C6
:1011A0009BA006F0ADFD01218D48C17402E0002135
:1011B0008B48C174FF218A488172FF2088490872D8
:1011C000FF2187484172C1724FF6FF71C181FF2133
:1011D000017481740121017380F82210002180F8CC
:1011E0002310417501751630016041608160163829
:1011F00080F8241080F82510C1844FF4FA60FFF7BE
:101200001AFF10B14FF0FF3068E70220FFF7D1FE60
:1012100010B14FF0FF3061E72A20FFF7D2FD10B187
:101220004FF0FF305AE73220FFF777FE10B14FF052
:10123000FF3053E70020FFF78FFD10B14FF0FF3074
:101240004CE70020FFF7F8FB10B14FF0FF3045E707
:101250000020FFF78CFB002040E770477CB5044678
:101260000D465F48807A00F0700010B94FF0FF30F3
:101270007CBD5B4A1268117B594A526810786B46F4
:10128000062201F0C2FC10B14FF0FF30F0E79DF8EC
:1012900001009DF8001040EA012000B220809DF876
:1012A00003009DF8021040EA012000B260809DF822
:1012B00005009DF8041040EA012000B2A08015B19D
:1012C0002846FFF7CAFF0020D2E77CB504460D464A
:1012D0004348807A00F0080010B94FF0FF307CBD21
:1012E0003F4A1268517B3E4A526810786B4606228C
:1012F00001F08BFC10B14FF0FF30F0E79DF80100DA
:101300009DF8001040EA012000B220809DF8030003
:101310009DF8021040EA012000B260809DF80500AF
:101320009DF8041040EA012000B2A08015B12846C3
:10133000FFF793FF0020D2E72DE9FE4F05460C464C
:101340002748807A18B94FF0FF30BDE8FE8F244A55
:101350001268917B224A5268107802AB022201F097
:1013600054FC10B14FF0FF30EFE79DF809009DF8F5
:10137000081040EA012006B214B12046FFF76DFFC5
:1013800017494968C88806F064FA15490190496808
:10139000B1F9080006F054FA8346304606F050FAD8
:1013A0005946009006F04EF88246019906F082F800
:1013B00081461F4905F0F4FF80464FF08F4106F04B
:1013C00047F8074606F05BFA28600020BDE710B535
:1013D00088B004461CB94FF0FF3008B010BD29E0BA
:1013E00014000020556E737570706F727465642000
:1013F000736F6674776172652070726F6475637461
:10140000207265762025642E0A000000A0A0000846
:1014100048616C662073656E736974697669747966
:10142000207061727420666F756E642E0A00000071
:1014300000000C42206830B9606820B9A06810B97B
:10144000002008B010BDFA494968087806AB0322AD
:10145000114601F0DAFB10B14FF0FF30F1E79DF8D3
:101460001800082101EB201000F00F00ADF800007B
:101470009DF8190001EB201000F00F00ADF80200FC
:101480009DF81A0001EB201000F00F00ADF80400E9
:1014900020684100BDF90000403091FBF0F000B23F
:1014A000ADF8100060684100BDF90200403091FBCA
:1014B000F0F000B2ADF81200A0684100BDF90400E0
:1014C000403091FBF0F000B2ADF81400D849496803
:1014D000087806AB0622114601F097FB10B14FF0D9
:1014E000FF30AEE79DF819009DF8181040EA012082
:1014F00000B2ADF808009DF81B009DF81A1040EAF4
:10150000012000B2ADF80A009DF81D009DF81C10E6
:1015100040EA012000B2ADF80C00BDF81000BDF8A3
:101520000810084400B2ADF81000BDF81200BDF874
:101530000A10084400B2ADF81200BDF81400BDF85E
:101540000C10084400B2ADF81400BDF81000000AF9
:101550008DF81800BDF81000C0B28DF81900BDF864
:101560001200000A8DF81A00BDF81200C0B28DF802
:101570001B00BDF81400000A8DF81C00BDF8140013
:10158000C0B28DF81D00AA494968087806AB06224A
:10159000114601F058FC10B14FF0FF3051E7002028
:1015A0004FE70146A248007A30B1012807D002284F
:1015B00009D003280FD10AE0FA2008800EE04FF48A
:1015C000FA7008800AE04FF47A70088006E04FF461
:1015D000FA60088002E00020088000BF00BF002001
:1015E000704701469248407A30B1012807D002285E
:1015F00008D003280CD108E0022008700BE004207A
:10160000087008E00820087005E01020087002E06B
:101610004FF0FF30704700BF8548C07C18B1087894
:101620004006000E08700020F4E701468048C07AAA
:10163000082817D2DFE800F01704070A0D10131866
:10164000BC20088013E06220088010E02A20088077
:101650000DE0142008800AE00A20088007E0052039
:10166000088004E000BF00BF0020088000BF00BF6A
:101670000020704701466E4890F8240010B14FF0EA
:10168000FF3070476A48C08908800020F9E70146AA
:1016900000200880401E704701464FF0FF30704721
:1016A00001466348007A30B1012807D0022808D0EB
:1016B00003280CD108E05F4808600BE05E48086032
:1016C00008E05E48086005E05D48086002E04FF011
:1016D000FF30704700BF0020FBE701465448407AC6
:1016E00030B1012808D002280AD0032810D10BE01D
:1016F0004FF4804008800EE041F69C7008800AE0BC
:101700004FF48050088006E04FF40060088002E04B
:101710004FF0FF30704700BF4548C07C10B10888CB
:10172000401008800020F5E701464148007C087021
:101730000020704701463E48807A10B101200870B1
:1017400001E0002008700020704738B50446384892
:10175000807A10B94FF0FF3038BD354A1268117CDD
:10176000334A526810786B46022201F04EFA10B1EB
:101770004FF0FF30F0E79DF801009DF8001040EABF
:10178000012000B220800020E6E72DE9FE4F074649
:10179000884692461D46DDF830B0002600242448D5
:1017A00090F8240010B1601EBDE8FE8F0020287064
:1017B0001F48807A10B94FF0FF30F5E71C48007CD5
:1017C00010B94FF0FF30EFE71948007C00F04000FF
:1017D00008B1B01CC6B21648007C00F0200008B169
:1017E000B01CC6B21248007C00F0100008B1B01C5A
:1017F000C6B20F48007C00F0080008B1B01DC6B2A8
:101800000B4A1268917A0A4A526810786B46022293
:1018100001F0FBF910B14FF0FF30C5E79DF8010072
:101820009DF8001040EA0129B1450BDA0020BBE722
:1018300014000020000003430000834233330342BE
:1018400033338341FC4840684088B9EB600F17DDB3
:10185000F94A1268517CF84A526810786B460122A6
:1018600001F0D3F910B14FF0FF309DE79DF8000073
:1018700000F0100020B1FFF783F96FF0010093E74B
:101880005046FFF7EAFCEC4A1268D17AEA4A5268FD
:1018900010786B46324601F0B8F910B14FF0FF30C6
:1018A00082E799FBF6F0401E8BF8000000202870BC
:1018B000B4422AD0E048007C00F0080028B3601C45
:1018C0001DF800001DF8041040EA012000B2A8F83D
:1018D0000000E01C1DF80010A01C1DF8000041EAEB
:1018E000002000B2A8F80200601D1DF80010201DA5
:1018F0001DF8000041EA002000B2A8F80400287892
:1019000040F008002870A01D84B2B44213D0CA4829
:10191000007C00F0400070B1601C1DF800001DF854
:10192000041040EA012000B23880287840F04000DE
:101930002870A01C84B2B44213D0BF48007C00F0D1
:10194000200070B1601C1DF800001DF8041040EA72
:10195000012000B27880287840F020002870A01C78
:1019600084B2B44213D0B448007C00F0100070B1CF
:10197000601C1DF800001DF8041040EA012000B2B0
:10198000B880287840F010002870A01C84B2002095
:101990000AE7F8B504460F461646A74890F8240013
:1019A00010B94FF0FF30F8BDA348807A10B94FF05E
:1019B000FF30F8E7A04A1268917A9F4A526810787F
:1019C0006B46022201F021F910B14FF0FF30EAE737
:1019D0009DF801009DF8001040EA0125A54203DAB8
:1019E00000203070401EDEE7934840684088B5EB29
:1019F000600F17DD904A1268517C8F4A5268107848
:101A00006B46012201F001F910B14FF0FF30CAE737
:101A10009DF8000000F0100020B1FFF7B1F86FF062
:101A20000100C0E7E2B2844B1B68D97A824B5B6845
:101A300018783B4601F0E9F810B14FF0FF30B2E7FB
:101A400095FBF4F0401E30700020ACE701467A4868
:101A500080F82210002070477CB505467649496819
:101A6000087801AB04220D2101F0CFF808B107205E
:101A70007CBD9DF80700C0F301109DF8041001F033
:101A8000E00140EAE1008DF800009DF80700C0F396
:101A900081009DF8051001F0E00140EAE1008DF8B9
:101AA00001009DF8070000F003009DF8061001F00A
:101AB000E00140EAE1008DF8020000241CE01DF87E
:101AC000040018B9002045F8240013E05B4845F8ED
:101AD000240006E055F82400594905F0B9FC45F802
:101AE00024001DF80400401EC0B20DF804000028B8
:101AF000F0D100BF601CC4B2032CE0DB0020B7E7CC
:101B00002DE9FE4F06460F4600256846FFF7A4FF65
:101B1000002442E056F8240057F82410A0EB010AF4
:101B2000BAF1000F01DB514601E0CAF1000108469D
:101B300005F086FE83464FF08F4105F0BBFC8046E2
:101B40005DF82400002105F027FF16D05DF8241071
:101B5000404605F0AFFC82464FF07E5105F072FC26
:101B6000814629F0004A3748416A504605F01EFF79
:101B700012D20120A04005430EE03248C169404620
:101B800005F00AFF05D32F48016A404605F00EFF15
:101B900002D20120A0400543641C032CBADB284676
:101BA000BDE8FE8F2DE9FC5F06460F460025224961
:101BB0004968087801AB03220D2101F026F810B125
:101BC0000720BDE8FC9F9DF8040000F01F008DF881
:101BD00004009DF8050000F01F008DF805009DF839
:101BE000060000F01F008DF80600002462E056F8A1
:101BF000240057F82410A0EB010BBBF1000F01DB10
:101C0000594601E0CBF10001084605F019FE4FF0FE
:101C10008F41009005F04EFC814601A8005DC0B3E5
:101C20000849086805F015FE83465946064805F040
:101C300041FC80460FE00000140000207B14AE3E03
:101C40001D5A843FA08D000800B04C45FE49404617
:101C500005F0FEFB804601A8005D401EC0B201A950
:101C600008550028F2D14146484605F023FC83463A
:101C70004FF07E5105F0E6FB82462AF0004BF34818
:101C80008169584605F092FE13D20120A040054319
:101C90000FE0FFE7ED480169484605F07DFE05D3FA
:101CA000EA484169484605F081FE02D20120A04081
:101CB0000543641C032C9ADB284682E72DE9F04F8C
:101CC00087B005460C46914601208DF81000002093
:101CD0008DF81100DE4A1268917CDD4A5268107856
:101CE00004AB022201F0AFF820B14FF0FF3007B093
:101CF000BDE8F08FC82003F074FB00208DF81000C1
:101D0000D34A1268D17BD24A5268107804AB0122C0
:101D100001F099F810B14FF0FF30E8E7CC4A1268B3
:101D20005179CB4A5268107804AB012201F08BF84C
:101D300010B14FF0FF30DAE7C54A1268917CC44A0F
:101D40005268107804AB012201F07DF810B14FF019
:101D5000FF30CCE7BE4A1268D17DBD4A5268107888
:101D600004AB012201F06FF810B14FF0FF30BEE775
:101D7000B74A12681179B64A5268107804AB01224A
:101D800001F061F810B14FF0FF30B0E70C208DF892
:101D90001000AF4A12681179AD4A5268107804AB4E
:101DA000012201F050F810B14FF0FF309FE70F20F3
:101DB00003F017FBA648806A407A8DF81000A44A09
:101DC00012689178A24A5268107804AB012201F09F
:101DD0003AF810B14FF0FF3089E79D48806A007AE9
:101DE0008DF810009A4A12685178994A5268107812
:101DF00004AB012201F027F810B14FF0FF3076E775
:101E0000B9F1000F07D09248806A807A40F0E00074
:101E10008DF8100004E08E48806A807A8DF81000FA
:101E20008B4A126891798A4A5268107804AB012271
:101E300001F009F810B14FF0FF3058E7B9F1000F89
:101E400007D08348806AC07A40F0E0008DF8100027
:101E500003E07E48C07A8DF810007D4A1268D1797F
:101E60007B4A5268107804AB012200F0ECFF10B1FD
:101E70004FF0FF303BE7B9F1000F02D0C82003F06C
:101E8000B0FA40208DF81000714A12681179704A3A
:101E90005268107804AB012200F0D5FF10B14FF06A
:101EA000FF3024E778208DF81000694A12685179D4
:101EB000674A5268107804AB012200F0C4FF10B1E9
:101EC0004FF0FF3013E76149888903F08AFA002058
:101ED0008DF810005E4A126851795D4A5268107898
:101EE00004AB012200F0AFFF10B14FF0FF30FEE66F
:101EF000574A1268917A564A5268107804AB022207
:101F000000F083FE10B14FF0FF30F0E69DF81100B5
:101F10009DF8101040EA012B0C209BFBF0F0C6B29C
:101F20000020A86068602860A06060602060824631
:101F300065E0474A1268D17A454A5268107804AB86
:101F40000C2200F062FE10B14FF0FF30CFE69DF89A
:101F500011009DF8101040EA012000B2ADF8080011
:101F60009DF813009DF8121040EA012000B2ADF870
:101F70000A009DF815009DF8141040EA012000B2F7
:101F8000ADF80C00BDF90810206808442060BDF9C8
:101F90000A10606808446060BDF90C10A06808442D
:101FA000A0609DF817009DF8161040EA012000B2CD
:101FB000ADF800009DF819009DF8181040EA0120C6
:101FC00000B2ADF802009DF81B009DF81A1040EA1F
:101FD000012000B2ADF80400BDF9001028680844E3
:101FE0002860BDF90210686808446860BDF90410F3
:101FF000A8680844A8600AF1010000F0FF0AB24591
:1020000097DB1248D0F800C02868C117090441EADC
:102010001041070462460023384605F071F9324644
:102020000023CDE9020105F06BF928600748D0F8DC
:1020300000C06868C117090441EA104107046246FC
:102040000023384606E0000054E3853FA08D0008D9
:102050001400002005F054F932460023CDE90201B6
:1020600005F04EF96860FE48D0F800C0A868C117B6
:10207000090441EA1041070462460023384605F08E
:102080003FF932460023CDE9020105F039F9A86095
:10209000F348D0F804C02068C117090441EA104190
:1020A000070462460023384605F02AF93246002329
:1020B000CDE9020105F024F92060E948D0F804C018
:1020C0006068C117090441EA104107046246002311
:1020D000384605F015F932460023CDE9020105F036
:1020E0000FF96060DE48D0F804C0A068C117090489
:1020F00041EA1041070462460023384605F000F922
:1021000032460023CDE9020105F0FAF8A060A0688C
:10211000002804DDA068A0F58030A06003E0A0687E
:1021200000F58030A0600020E1E538B50446CD48D8
:1021300090F82400A04201D1002038BD24B3C94842
:1021400090F8250010B94FF0FF30F6E70020FEF7B9
:102150004BFB0020FEF770FCC249C88CFEF7DDFE89
:1021600000200090BF49496808786B46012223216E
:1021700000F069FE0121BB4880F824100120FEF721
:1021800033FBFEF7FDFC13E00020FEF72DFBB54806
:10219000007C0090B349496808786B4601222321EE
:1021A00000F051FE0021AF4880F82410FEF7E8FC53
:1021B0000020C2E72DE9F04F8DB083460F46022084
:1021C0000C90A84890F8240020B10020FFF7ADFF44
:1021D000012600E0002603A8FFF7E3F905A8FFF7B2
:1021E00000FA01A8FFF721FA02A8FFF743FA9D4879
:1021F00090F80AA004A8FFF797FA002407E000224D
:1022000039465846FFF75AFD00B902E0641C022C1B
:10221000F5DB00BF022C01D1002528E0002407E0F7
:10222000012206A909A8FFF749FD00B902E0641CD4
:10223000022CF5DB00BF022C01D1002517E006A916
:102240003846FFF75DFC00F0FF0809A95846FFF784
:10225000A9FC00F0FF090025B9F1000F01D145F0FC
:102260000105B8F1000F01D145F0020500BFFF20C4
:102270007C490872FF217B484172C1724FF6FF71A1
:10228000C181FF218172017401210173BDF80C002D
:10229000FEF7D1FE9DF81400FEF78BFEBDF804009A
:1022A000FEF78FFDBDF80800FEF737FE5046FEF73B
:1022B0005EFB9DF81000FEF74FFD16B10120FFF701
:1022C00034FF28460DB0BDE8F08FF8B504460D4642
:1022D000164616B94FF0FF30F8BD6248807A10B943
:1022E0004FF0FF30F8E720128DF80000E0B28DF8D3
:1022F00001009DF8010028445A49496849898842EB
:1023000002DD4FF0FF30E7E7564A1268117E554A6A
:10231000526810786B46022200F095FD10B14FF024
:10232000FF30D9E7EAB24F4B1B68597D4D4B5B68D4
:102330001878334600F087FD10B14FF0FF30CBE73F
:102340000020C9E7F8B504460D46164616B94FF009
:10235000FF30F8BD4348807A10B94FF0FF30F8E7FE
:1023600020128DF80000E0B28DF801009DF8010008
:1023700028443C4949684989884202DD4FF0FF30D2
:10238000E7E7384A1268117E364A526810786B4681
:10239000022200F058FD10B14FF0FF30D9E7EAB249
:1023A000304B1B68597D2F4B5B681878334600F023
:1023B0002CFC10B14FF0FF30CBE70020C9E72DE92E
:1023C000F04385B005460E4690469946254890F85C
:1023D000250020B14FF0FF3005B0BDE8F08316B9FD
:1023E0004FF0FF30F8E7002423E0281B102801DD20
:1023F000102000E0281B87B2321939462046FFF72B
:1024000064FF10B14FF0FF30E6E701AA39462046DD
:10241000FFF798FF10B14FF0FF30DDE730193A4673
:1024200001A904F0B0FF10B16FF00100D4E7E0198A
:1024300084B2AC42D9DB4FEA28208DF8000008F0C6
:10244000FF008DF80100074A1268917E054A526824
:1024500010786B46022200F0F6FC40B104E0000068
:10246000A08D0008140000204FF0FF30B4E70121D8
:10247000FE4880F82510A0F826900020ACE7014621
:10248000FA4890F824000870002070474FF0FF30A1
:10249000704702464FF0FF30704701464FF0FF3063
:1024A0007047F8B505460F461446002C70D0B5F5B8
:1024B000FF5F01DDFF2605E0202D01DA012601E0A6
:1024C000C5F3471607B90127282C02DD4FF0FF306E
:1024D000F8BDE648407D28BBE44890F8240038B1B8
:1024E0000020FFF722FE0121E04880F8201003E0E1
:1024F0000021DE4880F82010DC481630FFF751F844
:10250000DA481830FFF76DF8D8481A30FFF78DF821
:10251000D6481C30FFF7AEF8D448817A81771F3057
:10252000FFF702F90020FEF75FF90020FEF788FCB4
:1025300000208DF80000CD4A12689178CB4A52688D
:1025400010786B46012200F07EFC10B14FF0FF3096
:10255000BEE740208DF80000C44A1268D17BC34A10
:10256000526810786B46012200F06DFC00B165E006
:102570008DF800608DF80170BC4A1268117ABB4A70
:10258000526810786B46022200F05DFC08B155E0FD
:1025900047E0052002F025FFB448407A072101EB0F
:1025A000C000C0B28DF80000B04A1268D179AF4ABD
:1025B000526810786B46012200F045FC00B13DE006
:1025C00020208DF80000012C03D100208DF801009F
:1025D0000EE0052C03DC01208DF8010008E0142C2E
:1025E00003DC02208DF8010002E003208DF80100D9
:1025F0009DF80100072101EB8010C0B28DF80100A9
:102600009A4A1268917C994A526810786B46022265
:1026100000F019FC00B111E001219448417500203F
:1026200056E7924A1632002103E0505C00B105E003
:10263000491C0C29F9D34FF0FF3049E7FF208B49A3
:102640000872FF2189484172C1724FF6FF71C18142
:10265000FF2181720174012101730146887FFEF719
:1026600086F98249C88AFEF7E6FC8049087EFEF7B3
:10267000A0FC7E49488BFEF7A4FB7C49888BFEF7C3
:102680004CFC7A49C87FFEF767FB784890F8200039
:1026900010B10120FFF749FD002174484175002069
:1026A00016E770B588B002A905A8FFF783FD0446B8
:1026B000032C3ED101A8FEF7F3FF059805F0C0F802
:1026C0000646019904F0C4FE054605F0D8F80590C9
:1026D000069805F0B5F80646019904F0B9FE0546DE
:1026E00005F0CDF80690079805F0AAF8064601997E
:1026F00004F0AEFE054605F0C2F8079005A800F00C
:1027000082FC6846FEF7E9FFBDF8001002984843D6
:102710000290BDF80010039848430390BDF80010E4
:1027200004984843049002A800F000FD002008B07F
:1027300070BD0120FBE7014691F90020002A01DD70
:1027400000201EE091F90020002A01DA042018E0A0
:1027500091F90120002A01DD012012E091F9012008
:10276000002A01DA05200CE091F90220002A01DD9F
:10277000022006E091F90220002A01DA062000E09A
:102780000720704710B504462046FFF7D4FF0346E4
:10279000E01CFFF7D0FF43EAC00083B2A01DFFF7A3
:1027A000CAFF43EA801083B2184610BD70B50024FA
:1027B000FDF71DFEFEF781FC002840D17820FEF7D2
:1027C000D6F8C4B20CB1012070BD7820FEF7C4FA6F
:1027D000C4B20CB10220F7E76420FEF79EFBC4B23E
:1027E0000CB10320F0E700F073FBC4B20CB104207D
:1027F000EAE71F48FFF7C6FF054600F073FBC4B2C7
:102800000CB10520E0E740F2731000F0ACFFC4B259
:102810000CB10620D8E7642000F01EFDC4B20CB154
:102820000720D1E7FFF73DFF04460CB10820CBE7B6
:102830000120FFF77AFCC4B21CB10920C4E70A20CA
:10284000C2E70020C0E72DE9F04F99B004460D46DD
:1028500016464FF07E574FF000084FF000094FF03A
:10286000000A12A813A918AB0EAA03E01400002056
:1028700040000020CDE9001014A916A801F0D2F8FC
:1028800018B1012019B0BDE8F08FBDF84C0000F47C
:10289000807000287ED00E9804F0D2FF83464FF05F
:1028A0009D4104F007FE07460F9804F0C9FF8346D8
:1028B0004FF09D4104F0FEFD8046109804F0C0FFEB
:1028C00083464FF09D4104F0F5FD8146119804F0D8
:1028D000B7FF83464FF09D4104F0ECFD8246394638
:1028E0004FF0804004F0B4FD4946059004F0B0FD7F
:1028F000414607904FF0404004F0AAFD5146059034
:1029000004F0A6FD0690079904F04AFD834604F002
:10291000E3FFCDE9080105F0F3FE4FF06632544BBA
:10292000CDE90A0104F0ABFECDE90C0105F018F881
:10293000206049464FF0804004F08AFD49460290ED
:1029400004F086FD414604904FF0404004F080FDC5
:102950004146029004F07CFD0390049904F072FD5E
:1029600083464FF07E5104F01BFD059004F0B4FF48
:10297000CDE9080139464FF0804004F069FD414639
:10298000039004F065FD494604904FF0804004F048
:102990005FFD00E068E05146039004F059FD834676
:1029A000049904F0FDFC059004F096FFCDE90601C2
:1029B000DDE9082306F0ECF84FF066322C4BCDE948
:1029C0000A0104F05CFECDE90C0104F0C9FF2860A7
:1029D0005146504604F03CFD49460490484604F0F8
:1029E00037FD41460390404604F032FD39460190E0
:1029F000384604F02DFD0090019904F0D1FC0290BE
:102A0000039904F01FFD8346049904F01BFD059013
:102A100004F062FFCDE908015146384604F018FD84
:102A200049460490404604F013FD0390049904F0D5
:102A3000B7FC4FF08041059004F00AFD834604F096
:102A40004BFFCDE90601DDE9082306F0A1F84FF0C0
:102A50006632074BCDE90A0104F011FECDE90C0105
:102A600004F07EFF306001E002200BE7002009E760
:102A700066A64C4070B505460C46FDF7D7FCD02045
:102A8000FDF77EFDFDF70FFD18B1FDF7EDFC012010
:102A900070BD2846FDF774FDFDF705FD2046FDF7E6
:102AA0006FFDFDF700FD18B1FDF7DEFC0120EFE73B
:102AB000FDF7DAFC0020EBE770B504460025BC2CDE
:102AC00001DB012510E0622C01DB02250CE02A2C41
:102AD00001DB032508E0142C01DB042504E00A2CAB
:102AE00001DB052500E0062529461A20FFF7C2FF75
:102AF00070BD70B50446B4F57A7F01DD4FF47A7489
:102B0000042C00DA04244FF47A7090FBF4F0401E99
:102B1000C5B229461920FFF7ADFF0546264604EB4E
:102B2000D671C1F34F00FFF7C7FF70BD70B5044603
:102B3000FDF77CFCD020FDF723FDFDF7B4FC20461B
:102B4000FDF71EFDFDF7AFFCFDF770FCD120FDF792
:102B500017FDFDF7A8FC0020FDF73BFD0546FDF73E
:102B600083FC284670BD10B50446E006010E1C200B
:102B7000FFF780FF10BD10B50446E006010E1B20D4
:102B8000FFF778FF10BD10B5FDF731FCC6A201219B
:102B9000084601F06AF980216B20FFF76BFF642083
:102BA00002F01FFC00216B20FFF764FF0320FFF7FA
:102BB000E2FF0020FFF7D7FFC820FFF79AFF0021B0
:102BC0003820FFF757FF00216A20FFF753FF00214D
:102BD0002320FFF74FFF80213720FFF74BFF7520A1
:102BE000FFF7A4FF0446682C0BD101216B20FFF7EF
:102BF00041FF00216C20FFF73DFFC820FFF779FF60
:102C000001E0012010BD0020FCE72DE9F04106465F
:102C10000F4614461D46FDF709FC002141EA460116
:102C2000C8B2FDF7ADFCFDF73EFC20B1FDF71CFC82
:102C30000120BDE8F0813846FDF7A2FCFDF733FC2A
:102C4000FDF7F4FB012101EB4601C8B2FDF798FC4A
:102C5000FDF729FC0DE0012C04D10020FDF7B9FCA3
:102C6000287003E00120FDF7B4FC2870601EC4B298
:102C70006D1C002CEFD1FDF7F7FB0020D9E72DE903
:102C8000F84F6B46022241216820FFF7BEFF9DF8F6
:102C900001009DF8001040EA01200FFA80FA50462A
:102CA00004F0DCFD80460022824B04F05AFD06460B
:102CB000814A824B04F03CFC044604F051FE8346FA
:102CC0007F49584604F0C4FB044604F0D8FD00B226
:102CD000BDE8F88F2DE9FC4104460D4616466B46CB
:102CE000062243216820FFF790FF0746BFB99DF8F1
:102CF00001009DF8001040EA012000B220809DF8FC
:102D000003009DF8021040EA012000B228809DF8DF
:102D100005009DF8041040EA012000B230803846DA
:102D2000BDE8FC812DE9FC4104460D4616466B4684
:102D300006223B216820FFF768FF0746BFB99DF8D0
:102D400001009DF8001040EA012000B220809DF8AB
:102D500003009DF8021040EA012000B228809DF88F
:102D600005009DF8041040EA012000B2308038468A
:102D7000BDE8FC812DE9FE4F06460C461546DFF8FE
:102D80004481DFF844912946204604F05BFB41462C
:102D90000290484604F056FB41460190304604F04C
:102DA00051FB0090019904F085FB8346029904F0E1
:102DB0004FFB8246294604F0F3FA07463846BDE841
:102DC000FE8F2DE9FC4104460D4616463246294643
:102DD0002046FFF7A7FF2088ADF800002888ADF84F
:102DE00002003088ADF80400BDF9000004F028FDB1
:102DF0008046364A4FF08341FFF7BCFF074604F098
:102E00003EFD00B22080BDF9020004F019FD8046AD
:102E10002E4A4FF08341FFF7ADFF074604F02FFD28
:102E200000B22880BDF9040004F00AFD8046274A5C
:102E30004FF08341FFF79EFF074604F020FD00B2EC
:102E40003080BDE8FC812DE9F04105460E4617466D
:102E50009846FDF7EBFA002141EA4501C8B2FDF7BB
:102E60008FFBFDF720FB20B1FDF7FEFA0120BDE846
:102E7000F0813046FDF784FBFDF715FB00240CE0E4
:102E800018F80400FDF77CFBFDF70DFB18B1FDF70A
:102E9000EBFA0120EBE7601CC4B2BC42F0DBFDF7AB
:102EA000E3FA0020E3E700004D50555F496E697476
:102EB0000000000000407540A4703D0AD743424026
:102EC0000000C84200FEFFC600FEFF46000080C1B1
:102ED00010B5C8234FF48062F74940F6F630FFF78B
:102EE0006EFA10BD10B586B00446F4A000680390D9
:102EF000F3A000680290F3A000680190F2A00068BF
:102F0000009004F0030003A9085C8DF8140003A8E6
:102F1000C4F3C101405C8DF8150003A8C4F381110E
:102F2000405C8DF8160004F0030002A9085C8DF8DF
:102F3000100002A8C4F3C101405C8DF8110002A882
:102F4000C4F38111405C8DF8120005AA032140F200
:102F50002640FFF7BAF918B14FF0FF3006B010BDA8
:102F600004AA032140F22A40FFF7AFF910B14FF055
:102F7000FF30F3E7019805900098049004F00400F6
:102F800058B19DF8140040F001008DF814009DF830
:102F9000100040F001008DF8100004F0200058B13E
:102FA0009DF8150040F001008DF815009DF8110006
:102FB00040F001008DF8110004F4807058B19DF8C4
:102FC000160040F001008DF816009DF8120040F048
:102FD00001008DF8120005AA03214FF48860FFF765
:102FE00074F910B14FF0FF30B8E704AA032140F2A2
:102FF0003140FFF76AF910B14FF0FF30AEE7B34848
:1030000004810020AAE71FB50446B048007A00F00A
:10301000030054F820000190AC48007A00F004004E
:1030200010B1019840420190A848007AC0F3C10055
:1030300054F820000290A548007A00F0200010B15A
:10304000029840420290A148007AC0F3811054F8DF
:10305000200003909D48008900F4807010B103980F
:10306000404203909A49019880FB0101800F40EA99
:10307000810001909649029880FB0110820042EA8B
:10308000917002909249039880FB0110820042EAFD
:10309000917003900198000E8DF800000198000CCB
:1030A0008DF801000198000A8DF802000198C0B265
:1030B0008DF803006A4604214FF47470FFF705F998
:1030C00018B14FF0FF3004B010BD0298000E8DF81B
:1030D00000000298000C8DF801000298000A8DF89B
:1030E00002000298C0B28DF803006A4604214FF432
:1030F0007570FFF7EAF810B14FF0FF30E3E703987F
:10310000000E8DF800000398000C8DF80100039864
:10311000000A8DF802000398C0B28DF803006A46D9
:1031200004214FF47670FFF7D0F8CCE770B588B083
:10313000064601A8FEF7D1FABDF804000021C90334
:1031400041EA5045C4036148007A00F0030056F894
:10315000200005905D48007A00F0040010B1059849
:10316000404205905948007AC0F3C10056F820004B
:1031700006905648007A00F0200010B106984042B0
:1031800006905248007AC0F3811056F8200007904C
:103190004E48008900F4807010B1079840420790B3
:1031A0000598C117A0FB042301FB043100FB0510A7
:1031B000810041EA927005900698C117A0FB042394
:1031C00001FB043100FB0510810041EA927006907A
:1031D0000798C117A0FB042301FB043100FB051075
:1031E000810041EA927007900598000E8DF8080062
:1031F0000598000C8DF809000598000A8DF80A0062
:103200000598C0B28DF80B000698000E8DF80C00E2
:103210000698000C8DF80D000698000A8DF80E0037
:103220000698C0B28DF80F000798000E8DF81000B8
:103230000798000C8DF811000798000A8DF812000D
:103240000798C0B28DF8130002AA0C214FF4257024
:10325000FFF73BF808B070BD30B585B004461DA23D
:1032600007CA02AB07C3C82C03DD4FF0FF3005B01F
:1032700030BDC82090FBF4F0401E85B2280A8DF8BE
:103280000000E8B28DF801006A46022140F21620E3
:10329000FFF71BF810B14FF0FF30E8E702AA0C214E
:1032A00040F6C120FFF711F810B14FF0FF30DEE714
:1032B000064884810020DAE7C88D00084CCD6C00F8
:1032C0000CC92C0036567600264666008000002089
:1032D00009E3CA02FEF2ABC4AAF1DFDFBBAFDFDF56
:1032E0000146FC4880890880002070472DE9FC4792
:1032F00006460F4606F0070010B1B7F5C86F03DDAC
:103300004FF0FF30BDE8FC87384604F0A2FA814652
:10331000F14904F0CFF880466846FEF762F99DF85F
:103320000000022806D0042816D0082826D010282D
:1033300048D135E04FF08D41404604F089F8814690
:1033400004F0B6FA84B2E549404604F081F88146BB
:1033500004F0AEFA85B238E04FF08C41404604F0FC
:1033600077F8814604F0A4FA84B2DD49404604F0BF
:103370006FF8814604F09CFA85B226E04FF08B414D
:10338000404604F065F8814604F092FA84B2D549CB
:10339000404604F05DF8814604F08AFA85B214E0F4
:1033A0004FF08A41404604F053F8814604F080FA19
:1033B00084B2CD49404604F04BF8814604F078FAD7
:1033C00085B202E04FF0FF309CE700BF20128DF87D
:1033D0000400E0B28DF8050028128DF80600E8B26E
:1033E0008DF8070006F00100A0B101AA02214FF4F8
:1033F000EA70FEF76AFF10B14FF0FF3082E70DF17F
:10340000060202214FF49270FEF75FFF10B14FF0F9
:10341000FF3077E706F00200A0B101AA02214FF4C5
:10342000EC70FEF752FF10B14FF0FF306AE70DF17C
:10343000060202214FF49470FEF747FF10B14FF0DF
:10344000FF305FE706F00400A0B101AA02214FF4AB
:10345000EE70FEF73AFF10B14FF0FF3052E70DF17A
:10346000060202214FF49670FEF72FFF10B14FF0C5
:10347000FF3047E7002045E738B5044600200090BC
:1034800004F0010020B19DF8000040F030000090F1
:1034900004F0020020B19DF8000040F00C00009004
:1034A00004F0040020B19DF8000040F003000090FB
:1034B0006A4601214FF4A470FEF707FF38BD38B506
:1034C0000446012C01DA012402E0042C00DD04246E
:1034D000601EC0B200906A46012140F24F10FEF714
:1034E000F4FE38BD38B50446052094FBF0F085B2F3
:1034F00028128DF80000E8B28DF801006A4602211A
:103500004FF4EF70FEF7E1FE38BD38B504460520F4
:1035100094FBF0F085B228128DF80000E8B28DF827
:1035200001006A4602214FF4ED70FEF7CEFE38BD71
:10353000F8B505460E464FF47A7095FBF0F000FBA7
:1035400006F4200E8DF80000200C8DF80100200AF2
:103550008DF80200E0B28DF803006A4604214FF4B2
:10356000AE70FEF7B2FEF8BD38B50446052094FBF8
:10357000F0F084B220128DF80000E0B28DF8010066
:103580006A4602214FF4AD70FEF79FFE38BD38B594
:103590000446052094FBF0F084B220128DF8000060
:1035A000E0B28DF801006A4602214FF4AC70FEF7DC
:1035B0008CFE38BD38B5044614B94FF0FF3038BD25
:1035C0006A4604214FF45870FEF7BCFE10B14FF06C
:1035D000FF30F4E79DF8000000069DF8011040EA76
:1035E00001409DF8021040EA01209DF803100843B5
:1035F00020600020E3E738B50446200E8DF8000077
:10360000200C8DF80100200A8DF80200E0B28DF840
:1036100003006A4604214FF45870FEF756FE38BD89
:1036200038B5044614B94FF0FF3038BD6A4604215E
:103630004FF47170FEF786FE10B14FF0FF30F4E7E3
:103640009DF8000000069DF8011040EA01409DF839
:10365000021040EA01209DF80310084300EB8000AF
:10366000800020600020E0E738B504461420B4FB59
:10367000F0F4200E8DF80000200C8DF80100200AD7
:103680008DF80200E0B28DF803006A4604214FF481
:103690007170FEF71AFE38BD38B5044664B12020BB
:1036A0008DF8000028208DF8010030208DF80200F0
:1036B00038208DF8030004E0A3220421684603F0BB
:1036C00050FE6A46042140F69E20FEF7FEFDFDF7FF
:1036D00057FA38BD800000200000484300004046F3
:1036E0000000C045000040450000C04438B5044615
:1036F00064B1C0208DF80000C2208DF80100C42004
:103700008DF80200C6208DF8030004E08B2204210E
:10371000684603F026FE6A46042140F69820FEF72C
:10372000D4FDFDF72DFA38BD3EB504466CB1FDA1C0
:10373000D1E900208968CDE9002002916A4609217B
:103740004FF49760FEF7C1FD3EBDF9A2D2E900102B
:103750009268CDE9010200916A4609214FF4976011
:10376000FEF7B3FDF0E73EB5044602208DF80000F9
:10377000CA208DF80100E3208DF8020009208DF8A1
:1037800003006A4604216820FEF79FFDA3208DF800
:10379000000004F0400048B1C0208DF80100C820AE
:1037A0008DF80200C2208DF8030006E0A3208DF8FA
:1037B00001008DF802008DF8030004F4C07048B1D8
:1037C000C4208DF80400CC208DF80500C6208DF8AB
:1037D000060006E0A3208DF804008DF805008DF8A2
:1037E0000600A3208DF807008DF808008DF8090069
:1037F0006A460A2140F6A720FEF767FD04F00300A1
:1038000018B120208DF8000002E0D8208DF80000CB
:103810006A46012140F6B620FEF757FD04F020006D
:1038200018B10120FFF780FF02E00020FFF77CFFC6
:1038300004F4C07008B304F4807060B1B2208DF855
:1038400000008B208DF80100B6208DF802009B202F
:103850008DF803000BE0B0208DF8000080208DF87B
:103860000100B4208DF8020090208DF803006A4614
:10387000042140F6A220FEF728FD04F0010020B349
:10388000F8208DF800006A4601214FF40B60FEF726
:103890001CFDFA210720FFF729FD0720FFF7ECFDAB
:1038A0000120FFF70CFE6420FFF71CFE4FF4FA70B6
:1038B000FFF72BFEC821A148FFF73AFE2820FFF7AB
:1038C00053FE0A20FFF763FE08E0D8208DF80000C1
:1038D0006A4601214FF40B60FEF7F7FC04F002008A
:1038E00018B1D9208DF8000002E0D8208DF8000032
:1038F0006A46012140F23D70FEF7E7FC04F0040047
:1039000018B10120FFF7F2FE02E00020FFF7EEFE03
:1039100004F0100018B10120FFF7BEFE02E0002005
:10392000FFF7BAFE44F0080085494881FDF728F901
:1039300000208349887304F0400018B10846807B5A
:10394000801D887304F4C07020B17D48807B801D89
:103950007B49887304F0140020B17948807B1030D3
:103960007749887304F0030020B17548807B001DFF
:103970007349887300203EBD014671484089088024
:10398000002070472DE9F0410446E07800F0C006C1
:10399000E07800F03F05607800F0010098B1EF108A
:1039A0002846E91705EB5171C910A5EBC101491C67
:1039B00001F0FF086248006820B161484146026892
:1039C0003846904700BF607800F0080030B15C488E
:1039D000406818B1B0115A4A516888470020BDE8C4
:1039E000F08110B586B0044656A207CA03AB07C3E0
:1039F00057A207CA8DE80700012C09D0022C0ED16E
:103A000003AA0B2140F68220FEF75FFC06B010BD32
:103A10006A460B2140F68220FEF757FCF6E74FF08E
:103A2000FF30F3E72DE9F04F8DB007468846154685
:103A30009946DDE9166B0024002030804049887BE0
:103A40005A4605A9FDF7A5FF18B1601E0DB0BDE8E7
:103A5000F08F3B48807A00F01400002861D09DF878
:103A6000140000069DF8151040EA01409DF816105C
:103A700040EA01209DF81710084328609DF81800BF
:103A800000069DF8191040EA01409DF81A1040EA1E
:103A900001209DF81B10084368609DF81C0000067B
:103AA0009DF81D1040EA01409DF81E1040EA0120DB
:103AB0009DF81F100843A8609DF8200000069DF89F
:103AC000211040EA01409DF8221040EA01209DF8B3
:103AD00023100843E86004F11000C4B22868001401
:103AE0000190686800140290A86800140390E868C8
:103AF0000014049001984043029901FB01000399CE
:103B000001FB0100049901FB010ABAF1706F02DBAD
:103B1000BAF1885F22DDFDF733F800203080401EC7
:103B200094E721E0B8AAB38DB4980D355D0000008C
:103B3000B8AAAAAAB088C3C5C700000009E3CA0290
:103B400080000020D8B1B9F38BA391B609B4D90095
:103B5000DAB1B9F38BA391B6DAB4DA00B6F90000A2
:103B600040F48070308000BF3448807A00F040001C
:103B700020B305A9601C085C095D40EA012000B281
:103B8000A8F8000005A9E01C095C05AAA01C105CAF
:103B900041EA002000B2A8F8020005A9601D095CF6
:103BA000201D105C41EA002000B2A8F80400A01D0E
:103BB000C4B2B6F9000040F0080030801F484089C8
:103BC00000F4C07008B305A9601C085C095D40EAF8
:103BD000012000B2388005A9E01C095C05AAA01CE0
:103BE000105C41EA002000B2788005A9601D095CE4
:103BF000201D105C41EA002000B2B880A01DC4B2B4
:103C0000B6F9000040F0700030800C48807A00F077
:103C1000030018B105A90819FFF7B4FE4846FDF7DF
:103C20001CFB002012E70146044801600020704799
:103C300001460248416000207047000080000020DB
:103C400008B50121082001F0BFFF14208DF8030002
:103C500003208DF802004FF48070ADF80000694633
:103C6000FE4801F0F5FC4FF40070ADF80000694625
:103C7000FA4801F0EDFC01221102F84801F099FD2B
:103C800001225102F54801F094FD08BD032000BF58
:103C9000011EA0F10102D0B2FAD1704710B5012285
:103CA0005102EE4801F085FD01221102EB4801F0BE
:103CB00080FD00224FF40071E84801F07AFD0022F7
:103CC0004FF48071E54801F074FD10BD10B501227C
:103CD0001102E24801F06DFDFFF7D8FF0122110249
:103CE000DE4801F066FDFFF7D1FF00224FF480713E
:103CF000DA4801F05EFDFFF7C9FF10BD10B50022E4
:103D00004FF40071D54801F054FD01221102D3484F
:103D100001F04FFD01225102D04801F04AFD10BDD3
:103D200070B50546002415E08020204100EA050218
:103D30004FF40071C94801F03CFD01221102C7484F
:103D400001F037FD00224FF48071C44801F031FDCD
:103D5000601CC4B2082CE7DB01221102BF4801F04D
:103D600028FD00224FF48071BC4801F022FD70BD97
:103D700010B50446FFF792FF7820FFF7D1FF00202F
:103D8000FFF7CEFF2046FFF7CBFFFFF7B7FF10BDD1
:103D900010B50446FFF782FF7820FFF7C1FF4020EF
:103DA000FFF7BEFF2046FFF7BBFFFFF7A7FF10BDE1
:103DB00070B505460C4645F0B000FFF7D9FF10215D
:103DC00041EA1410FFF7D4FF04F00F00FFF7D0FF13
:103DD00070BD70B500240EE000212046FFF7E8FF1B
:103DE000002504E00020FFF7D3FF681CC5B2802D3A
:103DF000F8DB601CC4B2082CEEDB70BD2DE9F0418D
:103E000005460E461746721ED206110E6A1E52064F
:103E1000100EFFF7CDFF002409E0A7F12001904A22
:103E200002EB0111085DFFF7B3FF601CC4B2082C60
:103E3000F3DB721ED206110E6A1E012303EB42024F
:103E4000D0B2FFF7B5FF00240BE0A7F12001844AB0
:103E500002EB011204F10801505CFFF799FF601CAE
:103E6000C4B2082CF1DBBDE8F0812DE9F041074632
:103E70000D461646002407E0325D2819C1B23846C7
:103E8000FFF7BCFF601CC4B2305D10B128191028C8
:103E9000F2DB102C07DA2819C1B220223846FFF7CE
:103EA000ADFF601CC4B2BDE8F08110B50246012030
:103EB00000E050430B1EA1F10101FAD110BD2DE924
:103EC000F04780460E4617461D46002415E0281B85
:103ED000411E0A20FFF7E9FFB7FBF0F00A21B0FB13
:103EE000F1F201FB120000F130093019C1B24A466B
:103EF0004046FFF783FF601CC4B2AC42E7DBBDE87D
:103F0000F0872DE9F0478146884615461E46002D6C
:103F100006DB2B2241464846FFF770FF2F4605E09F
:103F20002D2241464846FFF769FF6F42002417E003
:103F3000301B411E0A20FFF7B8FFB7FBF0F00A2143
:103F4000B0FBF1F201FB120000F1300A08EB0400B3
:103F5000401CC1B252464846FFF750FF601CC4B235
:103F6000B442E5DBBDE8F0872DE9F04781460E4617
:103F700090461F4600241DE0381B411E1020FFF70D
:103F800094FFB8FBF0F000F00F050A2D08DA05F1F8
:103F90003000C2B23019C1B24846FFF72FFF07E028
:103FA00005F13700C2B23019C1B24846FFF726FF0B
:103FB000601CC4B2BC42DFDBBDE8F0872DE9F047EE
:103FC00080460E4617461D46002412E0281B411E5F
:103FD0000220FFF76AFFB7FBF0F000F0010000F1EC
:103FE00030093019C1B24A464046FFF707FF601C4E
:103FF000C4B2AC42EADBBDE8F08770B5002406E04D
:10400000002500E06D1CB5F57A7FFBD3641CB4F588
:104010007A7FF5D3FFF714FEAE20FFF7A9FED52077
:10402000FFF7A6FE8020FFF7A3FEA820FFF7A0FE63
:104030003F20FFF79DFED320FFF79AFE0020FFF7F9
:1040400097FE4020FFF794FEA120FFF791FEC820C5
:10405000FFF78EFEDA20FFF78BFE03E0000C014035
:10406000BE9900081220FFF783FE8120FFF780FE33
:10407000CF20FFF77DFED920FFF77AFEF120FFF772
:1040800077FEDB20FFF774FE3020FFF771FEA420DF
:10409000FFF76EFEA620FFF76BFE8D20FFF768FE90
:1040A0001420FFF765FEAF20FFF762FEFFF791FED9
:1040B00070BD70B5002428E004F1B001C8B2FFF76C
:1040C00057FE0020FFF754FE1020FFF751FEFFF7C8
:1040D000E5FD7820FFF724FEFFF7F8FD4020FFF70D
:1040E0001FFEFFF7F3FD002509E0094901EBC501BB
:1040F000085DFFF715FEFFF7E9FD681CC5B2802DCE
:10410000F3DBFFF7FBFD601CC4B2082CD4DB70BDF1
:104110009000002008B50121082001F055FD4FF462
:104120007040ADF8000010208DF8030003208DF8DA
:1041300002006946734801F08BFA08BD30B589B0BA
:1041400005460C46FFF7E6FF0121C80201F03CFDE1
:104150000121042001F038FD4FF41060ADF820007B
:1041600018208DF8230003208DF8220008A9664846
:1041700001F06EFAADF81850ADF814400020ADF81B
:104180001A00ADF8160005A9604802F0C7F86020D3
:10419000ADF804000120ADF806000020ADF80A00DB
:1041A000ADF80C0001A9594802F0F5F801A95748EB
:1041B00002F0CBF90121554802F018FC08215348C0
:1041C00002F038FD0821514802F053FD4FF4FA6126
:1041D0004E4802F097FE4FF4FA614C4802F098FE08
:1041E00001214A4802F0F6FC0121484802F0F2FBA6
:1041F00009B030BD0146002901DA484200E0084616
:10420000704700B503460A464148007C01282FD17B
:10421000002B06DD3F49086000203F49C1F8B4018A
:1042200006E000203B49086001203B49C1F8B40189
:104230001846FFF7DFFF354940310880002A08DDC6
:10424000012034490831086000203349C1F8BC011D
:1042500007E000202F490831086001202E49C1F8ED
:10426000BC011046FFF7C6FF2849343108800CE036
:1042700000202849091D08602749C1F8B0012549D7
:10428000083108602449C1F8BC0100BD204800681D
:104290001F4949694942884204DA1D484069404241
:1042A0001B4908601A48006819494969884203DDBA
:1042B000174840691649086015484068144949691B
:1042C0004942884204DA1248406940421049486035
:1042D0000F4840680E494969884203DD0C4840692F
:1042E0000B494860704700200A49091D08600A49C7
:1042F000C1F8B0010749083108600749C1F8BC019D
:1043000070470000000C014000080140002C0140F3
:1043100010050020B08121420080214200B587B005
:104320000121084601F05DFC0121042001F04CFC54
:104330000320ADF8000004208DF8030069465848BA
:1043400001F086F904A802F015FB0020ADF810007A
:104350004FF6FF70ADF814000020ADF81600ADF870
:10436000120004A94FF0804001F0D8FF00231A4644
:1043700003214FF0804002F0E0FB01A802F00DFBAA
:104380000620ADF80C0001A94FF0804002F059FA68
:104390000121880702F0E4FD00214FF0804002F087
:1043A000ADFD0121880702F015FB07B000BD00B587
:1043B00087B00121042001F014FC0121082001F044
:1043C00003FCC020ADF8000004208DF8030069460E
:1043D000344801F03DF904A802F0CCFA0020ADF811
:1043E00010004FF6FF70ADF814000020ADF8160075
:1043F000ADF8120004A92C4801F090FF00231A46E2
:104400000321294802F099FB01A802F0C6FA062010
:10441000ADF80C0001A9244802F013FA012122484A
:1044200002F09EFD0021204802F068FD01211E4897
:1044300002F0D0FA07B000BD0146022902D00429DB
:1044400012D108E04FF08042928C10B200224FF05F
:1044500080439A840AE0144A2432128810B200225F
:10446000114B24331A8001E0002000BF00BF7047C9
:104470000D48103000880C481030008820F00100F2
:1044800009491031088070474FF08040008A4FF092
:104490008040008A20F001004FF080410882704780
:1044A00000080140000C0140000800402DE9F047E1
:1044B00004460E461746EF49606903F06DFA12D8BC
:1044C0000021206903F072FA0DD2EB49606902F015
:1044D00067FF8046216902F0B8FF0546E74902F010
:1044E000B7FFA06150E0E649606903F055FA12D8C1
:1044F0000021206903F050FA0DD2DF49606902F013
:104500004FFF8046216902F0A0FF0546DB4902F01B
:104510009FFFA06138E0DB49606903F047FA12D8D9
:104520000021206903F038FA0DD2D349606902F006
:1045300089FF8046216902F088FF0546CF4902F0D5
:1045400087FFA06120E0CC49606903F02FFA12D800
:104550000021206903F02AFA0DD2C749606902F0F0
:1045600071FF8046216902F070FF0546C34902F0E1
:104570006FFFA06108E0D4E9040102F063FF054683
:10458000BE4902F065FFA061A06903F0A5F980466D
:104590004FF03332BC4B03F0CBF90BD2A06903F0E0
:1045A0009BF980464FF03332B84B03F0A9F901D2A2
:1045B0000020A061A169206802F04AFFE060B449D0
:1045C000E06803F0F3F902D8B148E06006E0B149D1
:1045D000E06803F0E1F901D8AE48E060BDE8F0879B
:1045E0002DE9F04704468946D4E9050102F02AFF87
:1045F000E061E06903F070F90746A74AA74B03F0B2
:104600003EF8054603F0ACF9E061E06903F064F9B7
:1046100005460022A24B03F08BF90AD2E06903F0B1
:104620005BF9054600229F4B03F06AF901D2002096
:10463000E061616AE06903F0B9F904D3E16AE06915
:1046400003F0AAF913D22168E06902F001FF0546E0
:10465000002103F0ABF904D2484603F0FAF8E06019
:1046600042E0C9F1000003F0EBF8E0603CE0E169F2
:10467000606802F0EDFE0646D4E9070102F0E2FEB2
:104680000746216802F0E4FE0546314602F088FE46
:1046900020614FF08041206903F088F905D34FF085
:1046A0004041206903F078F904D2D4E9030102F013
:1046B00077FEE060484603F0CCF80546E16803F079
:1046C0006BF903D2484603F0C4F8E060C9F100007A
:1046D00003F0B6F80546E16803F068F904D2C9F1C1
:1046E000000003F0ADF8E060E0692062BDE8F0870B
:1046F00070472DE9F05F0446894692469B46D4E90F
:10470000040102F09FFEA061A06903F0E5F80746EE
:10471000614A624B02F0B3FF054603F021F9A06144
:10472000A169206A02F03CFE2062A16AA06903F040
:104730003DF904D3216BA06903F02EF913D221684F
:10474000A06902F085FE0546002103F02FF904D28E
:10475000484603F07EF8E06081E0C9F1000003F014
:104760006FF8E0607BE0E06A80F000452846A169D0
:1047700003F012F91FD2E16AA06903F00DF91AD211
:10478000504603F066F80546216A03F005F903D2A6
:10479000504603F05EF82062CAF1000003F050F8C2
:1047A0000546216A03F002F907D2CAF1000003F0BE
:1047B00047F8206201E000202062BBF1010F17D111
:1047C000616AA06802F044FE0646216A606802F051
:1047D0003FFE0746A169206802F03AFE804639464E
:1047E00002F0DEFD0546314602F0DAFDE0601AE037
:1047F000D4E9060102F026FE0746A16802F028FE71
:104800000546216A606802F023FE0746A169206818
:1048100002F01EFE8046394602F0C2FD06462946D9
:1048200002F0BEFDE060484603F013F80546E1687B
:1048300003F0B2F803D2484603F00BF8E060C9F188
:10484000000002F0FDFF0546E16803F0AFF804D276
:10485000C9F1000002F0F4FFE060A069E061BDE88A
:10486000F09F10B50446204602F0EAFF0E49886129
:1048700010BD0000000034C30000B443000020411C
:104880000000B4C3000034433333C3BF3333C33FEA
:104890000080BB440080BBC49A9999999999E93FDB
:1048A0000000F8BF0000F83FD00500201FB5069CAF
:1048B00000208DF808008DF8073000941FBD10B55A
:1048C00088B004460121042001F07EF9012188030B
:1048D00001F087F94FF40070ADF81C0003208DF84B
:1048E0001E0018208DF81F0007A9664800F0B0FED2
:1048F0004FF48060ADF81C0004208DF81F0007A95C
:10490000604800F0A5FE25208DF8080001208DF8F4
:1049100009008DF80A008DF80B0002A801F0C1FB18
:1049200003940020ADF81000ADF81200ADF81400AB
:10493000ADF818000C20ADF8160003A9524801F09C
:10494000EAF9012240F225514F4801F07CFA012199
:104950004D4801F06CFA4D480068FF2300904C4828
:1049600007C8FFF7A3FF08B010BD1FB504462078A5
:10497000FF2806D047A003F0C3F94FF0FF3004B082
:1049800010BD6078A178084408B1012000E0002043
:104990008DF808009DF80800E178884205D045A010
:1049A00003F0AEF96FF00100E9E760788DF80900D7
:1049B000A0788DF80A000020E1E710B540F22551FB
:1049C000314801F025FB002852D040F225512E48F5
:1049D00001F048FB2C4801F09BFA3D4908702C4837
:1049E000C079097888420BD139480078284909688C
:1049F000087027480068401C25490860012008729B
:104A00002348007A01280BD13148007820490968F1
:104A100008701F480068401C1D4908600220087289
:104A20001B48007A02280BD12948007818490968E8
:104A3000087017480068401C154908600320087278
:104A40001348007A032813D12148007810490968D7
:104A5000087000200E49087200BF0D480EC81D489E
:104A6000FFF783FF0028F8D108480068084908606C
:104A700010BD07B59DF80500012800D100E000BF7A
:104A800000BF0EBD00080140003801405400002066
:104A90002C0600204572726F723A20496E76616C66
:104AA0006964206672616D65206865616465722E57
:104AB0000A0000004572726F723A20436865636BAA
:104AC00073756D206D69736D617463682E0A0000E3
:104AD000580000204C00002010B592B0044601217F
:104AE000042001F071F80121480401F07AF8012155
:104AF000084601F05CF80420ADF8080003208DF8AA
:104B00000A0018208DF80B0002A9A64800F0A0FDAD
:104B10000820ADF8080004208DF80B0002A9A14878
:104B200000F096FD26208DF8040001208DF8050088
:104B300000208DF8060001208DF8070001A801F083
:104B4000B0FA994802F0B2FA984803909848049055
:104B5000002005900A2006900020079080200890F1
:104B6000002009900A900B904FF440500C900020C8
:104B70000D9003A98C4802F03BFB0E940020ADF889
:104B80003C00ADF83E00ADF84000ADF844000C200C
:104B9000ADF842000EA98548001F01F0BCF80121C4
:104BA0008248001F01F043F912B010BD70B50546F0
:104BB0000C46284602F04DFE064604E07D4930468C
:104BC00002F078FC0646201EA4F10101CCB2F5D11A
:104BD000304670BD2DE9F05F04460026B04601273F
:104BE00000252FE0B8F1000F1BD104F10800405D53
:104BF0002E2802D14FF0010822E004F10801485D9F
:104C000002F027FE82466B49304602F021FC8346C3
:104C1000514602F0C5FB8146674902F013FC064687
:104C20000EE004F10801495D1E39C8B23946FFF7AC
:104C3000BDFF8146314602F0B3FB0646781CC7B281
:104C4000681CC5B2A079A842CCDC2079012806D026
:104C5000022805D0032804D0042804D102E002E091
:104C600001E000E000BF00BFBDE8F09F704710B555
:104C70004FF4001002F021FB18B14FF4001002F0C5
:104C800030FB4FF4800002F018FB18B14FF48000A5
:104C900002F027FB4FF4000002F00FFB18B14FF4B5
:104CA000000002F01EFB10BD704770B504460D46B3
:104CB0002946204601F028F900BF8021204601F056
:104CC00091F90028F9D070BD2DE9F04107460D4655
:104CD0001646002405E0295D3846FFF7E6FF601C14
:104CE000C4B2B442F7DB00BF4021384601F07AF984
:104CF0000028F9D0BDE8F08170B506460C460025C5
:104D000000BF615D3046FFF7D0FF6D1C605D00287D
:104D1000F7D100BF4021304601F064F90028F9D0F6
:104D200070BD2DE9F04105460C46260AE7B2314632
:104D3000284601F0E9F800BF80211C48001F01F05F
:104D400051F90028F8D03946284601F0DDF800BFB7
:104D500080211648001F01F045F90028F8D0BDE871
:104D6000F08170B504460D46E1B21048001F01F015
:104D7000CBF800BF80210D48001F01F033F9002857
:104D8000F8D0204670BD10B5044600BF202107486A
:104D9000001F01F027F90028F8D00448001F01F097
:104DA000B7F810BD000801406C0002400444004008
:104DB00038060020000020410000F0411B481C493B
:104DC00008601C4848600020486108611A488862F1
:104DD0001A4808631A48C8621A481B4908601B48E9
:104DE0008860002048610861194888621948086392
:104DF0000020C8621848194908600020486113481B
:104E000017490860174848600020886148611648C3
:104E100048621648C86200208862704741F28830B4
:104E20001349486101200874704770478FC2F53FED
:104E3000600500209A99193F00F0794500F079C586
:104E400000703B45000048C3280500203333B3BE43
:104E500000005143000051C30000A041980500200C
:104E6000D0050020000018C300008C4200008CC256
:104E70001005002070B54048B0F9000000F1230291
:104E80003EA1414802F04CFF3F4A01210846FEF78F
:104E9000ECFF3949C86802F01FFD044622460B4664
:104EA0003AA1394802F03CFF374A01210220FEF7BF
:104EB000DCFF3149086902F00FFD044622460B462B
:104EC00035A1314802F02CFF2F4A01210320FEF7C3
:104ED000CCFF34A201210420FEF7C7FF70BD70B5DE
:104EE0002548B0F9000000F1230224A1264802F071
:104EF00017FF254A01210846FEF7B7FF2C482DA1D0
:104F00000268214802F00CFF1F4A01210220FEF72F
:104F1000ACFF2A49086A02F0DFFC044622460B4631
:104F200027A1194802F0FCFE174A01210320FEF7D1
:104F30009CFF2249086802F0CFFC044622460B463B
:104F400022A1114802F0ECFE0F4A01210420FEF7D5
:104F50008CFF1A49486802F0BFFC044622460B4603
:104F60001CA1094802F0DCFE074A08210420FEF7D4
:104F70007CFFFFF79EF870BD980600206779726F7E
:104F8000783A25640000000053060020526F6C6CD4
:104F90003A252E33660000007961773A252E336674
:104FA00000000000496E69742066696E69736800CC
:104FB000100500204F75743A25640000600500203C
:104FC000495F73756D3A256400000000703A252E24
:104FD00032660000693A252E3266000010B5FFF7F0
:104FE00049FF10BD10B5FFF77AFF10BD70470020D4
:104FF000C74908704870AFF21B004860AFF21B0150
:10500000C3488160AFF21B01C160704710B5C04852
:105010004078012804D1FFF74CF80020BC494870C3
:10502000BB480078012803D1B949886880470AE065
:10503000B7480078022803D1B549C868804702E024
:10504000B3494868804710BD7FB505460C4601212D
:10505000022000F0C6FD0121AE4801F095FF0121BC
:10506000AC4801F07DFFADF80850ADF804400020D9
:10507000ADF80A00ADF8060001A9A64801F04EF906
:1050800001221146A34801F0C0FC1D208DF800004C
:1050900000208DF801008DF8020001208DF803003A
:1050A000684600F0FEFF01219A4801F093FC7FBDA5
:1050B0002DE9F04F9BB00121964801F054FF0028E4
:1050C0007ED0954A111F081FFDF7BDFB002848D16F
:1050D000914A0C3A911E881EFDF7FCFD0220FFF755
:1050E000ABF940428D4988600420FFF7A5F98B4950
:1050F000C8608968894AD268881802F0A1FB88498B
:10510000486185481038C068864908610869864941
:1051100002F04CFC05D983490869844902F03CFC43
:1051200005D800207D490874FFF7DDF802E0012072
:105130007A49087478491039B1F9000002F080FB0F
:105140007849486274491039B1F9001001F1220020
:1051500002F076FB764908616F481038006975499E
:1051600008616B4800780028AAD00121694801F045
:105170000BFF6C49086902F0AFFB04460D46664917
:105180001039C86802F0A8FB06460F46624910397C
:10519000B1F9000002F054FB0F9002F09DFB804635
:1051A00089466349C86802F097FB82468B465D4991
:1051B000C86802F091FBCDE918015849C86800E0C1
:1051C000A3E002F03DFB0F9002F086FBCDE9160153
:1051D0005249886802F034FB0F9002F07DFBCDE964
:1051E00014014F49C86802F077FBCDE912014C4920
:1051F00088694FF0804102F05DF90F9002F06CFB7E
:10520000CDE908ABCDE90A89CDE90C67CDE90E45BA
:10521000CDE91001DDE91801CDE90601DDE916014E
:10522000CDE90401DDE91401CDE90201DDE9120156
:10523000CDE9000140A0DDE9102302F061FD3C480A
:1052400090F83400401C3A4981F834003548C06871
:105250004861002340F2CF7241F657313448FFF7DE
:1052600048FA002240F69F713248FFF71FF9314A91
:10527000D1682F4AD06802F0E5F8044602F0FFFA40
:10528000264908602B4AD168294AD06802F088F87C
:10529000044602F0F4FA21494860FEF7F7FF1F4A7E
:1052A00051681068FEF7ADFF1E4890F83400401CAE
:1052B0001C4981F83400084690F8340005280DDBBD
:1052C0001748C06848610123002241F28731154820
:1052D000FFF70FFA0020134981F83400104890F8C6
:1052E0003000401C0E4981F83000084690F830002C
:1052F00028280ADB1E20FFF7B4FAC7210848FFF769
:105300006FF90020064981F830001BB0BDE8F08F2E
:105310008806002000040040A80600201005002098
:10532000D00500202805002000003442000034C2CF
:105330006005002098050020252E33662C252E338D
:10534000662C252E33662C252E33662C252E3366AF
:105350002C252E33662C252E33662C252E33662CD9
:10536000252E33660A00000010B56FF0040000F02F
:10537000E2FE2E4800682E49B0FBF1F02D4908707E
:105380000846007800EB4001C1EBC0104FF6FF71FA
:1053900001EAC0002849088010BD0146254A12785C
:1053A0004A434FF0E0235A6100229A611A4612697B
:1053B00042F001021A6100BF4FF0E022106900F0D4
:1053C00001021AB100F48032002AF5D04FF0E02239
:1053D000126922F001024FF0E0231A6100229A6163
:1053E00070470146144A12884A434FF0E0235A613D
:1053F00000229A611A46126942F001021A6100BF46
:105400004FF0E022106900F001021AB100F480327E
:10541000002AF5D04FF0E022126922F001024FF08D
:10542000E0231A6100229A6170470000000000200A
:1054300000127A005A0000205C000020014600BFE4
:10544000704710B586B004460121082000F0BCFB6F
:105450000121880400F0C5FB4FF48060ADF8140012
:1054600003208DF8160018208DF8170005A93B4879
:1054700000F0EEF84FF40060ADF8140004208DF851
:10548000170005A9354800F0E3F827208DF8000043
:1054900001208DF8010003208DF8020001208DF815
:1054A0000300684600F0FDFD01940020ADF80800FF
:1054B000ADF80A00ADF80C00ADF810000C20ADF806
:1054C0000E0001A9264800F026FC012240F22551D9
:1054D000234800F0B8FC0121214800F0A8FC06B0E8
:1054E00010BD10B540F225511D4800F091FD10B3DC
:1054F0001B4800F00DFDC4B21A48008800F40040BB
:10550000C8B91848008800F4804060B10A2C03D064
:1055100000201449088020E01248008840F4004030
:105520001049088019E00D2C06D10E48008840F47F
:1055300080400C49088010E00A480088C0F30D0044
:1055400009490C5407480088401C06490880084651
:105550000088C72801DD0020088010BD000C014034
:105560000048004064000020AC0600200648804748
:1055700006480047FEE7FEE7FEE7FEE7FEE7FEE738
:10558000FEE7FEE7FEE7FEE7E30200083101000860
:1055900010B50446CC48844208D10121042000F013
:1055A0002DFB0021042000F029FB46E0C74884427F
:1055B00008D10121082000F021FB0021082000F083
:1055C0001DFB3AE0C248844208D10121102000F0BE
:1055D00015FB0021102000F011FB2EE0BD48844295
:1055E00008D10121202000F009FB0021202000F03B
:1055F00005FB22E0B848844208D10121402000F098
:10560000FDFA0021402000F0F9FA16E0B348844288
:1056100008D10121802000F0F1FA0021802000F063
:10562000EDFA0AE0AE48844207D10121801500F06E
:10563000E5FA0021A01500F0E1FA10BD10B5012136
:10564000084600F0DBFA0021012000F0D7FA10BD77
:105650002DE9F04102460025002600200023002409
:10566000002791F803C00CF00F0591F803C00CF06F
:10567000100CBCF1000F03D091F802C04CEA0505F4
:1056800091F800C0BCF1000F31D0146800202BE06D
:105690004FF0010C0CFA00F3B1F800C00CEA03065D
:1056A0009E4220D183004FF00F0C0CFA03F7BC434D
:1056B00005FA03FC4CEA040491F803C0BCF1280F7E
:1056C00006D14FF0010C0CFA00FCC2F814C00AE03D
:1056D00091F803C0BCF1480F05D14FF0010C0CFA52
:1056E00000FCC2F810C0401C0828D1D31460B1F8E7
:1056F00000C0BCF1FF0F34DD546800202EE000F143
:10570000080C4FF0010808FA0CF3B1F800C00CEADD
:1057100003069E4221D183004FF00F0C0CFA03F7D1
:10572000BC4305FA03FC4CEA040491F803C0BCF145
:10573000280F05D100F1080C08FA0CF8C2F8148003
:1057400091F803C0BCF1480F07D100F1080C4FF0ED
:10575000010808FA0CF8C2F81080401C0828CED3C3
:105760005460BDE8F0814FF6FF7101800221817025
:105770000421C17070470246002093680B400BB1B2
:10578000012000E0002070470146886880B2704721
:1057900002460020D3680B400BB1012000E000203E
:1057A00070470146C86880B2704701617047416127
:1057B00070470AB1016100E041617047C160704704
:1057C0004FF480320A438261816182618269826919
:1057D000704702460020434B18684FF6807318400C
:1057E00040EA021008433F4B186070473E49C861C9
:1057F0007047F0B50A46002300240021002500F080
:105800000046B6F1004F02D1364EF16901E0354E47
:105810007168C0F3034583B200F44016B6F5401F2B
:1058200008D121F070612F4E766826F070662D4FFA
:105830007E6012E000F48016B6F5801F06D10326C4
:1058400006FA05F4A14341F0706106E0460D360109
:1058500003FA06F6B14341F0706122B1460D3601FC
:1058600003FA06F6314300F00046B6F1004F02D1CC
:105870001C4EF16101E01B4E7160F0BD30B500229D
:105880008B071C0F0F2303FA04F2164B08338C10FE
:1058900053F824309343134C08348D1044F82530CA
:1058A00023468C1053F824308C07240F00FA04F49C
:1058B00023430C4C08348D1044F8253030BD0A4980
:1058C000DC3108607047000000080140000C014016
:1058D000001001400014014000180140001C01406C
:1058E000002001400000014000002042DF48006825
:1058F00040F00100DD49086008464068DC49084086
:10590000DA49486008460068DA490840D749086023
:105910000846006820F4802008600846406820F4AB
:10592000FE0048604FF41F0088607047CF49096847
:1059300021F48031CD4A11601146096821F480219B
:105940001160B0F5803F03D0B0F5802F0ED106E096
:10595000C649096841F48031C44A116007E0C3496F
:10596000096841F4A021C14A116000E000BF00BFF6
:10597000704710B501460022002300204A11012A79
:1059800002D1BA4C236806E0022A02D1B74C236A3E
:1059900001E0B64C636A01F01F02012494401C40F0
:1059A0000CB1012000E0002010BD38B500200090AF
:1059B0000024002500BF3120FFF7DBFF05460098DB
:1059C000401C00900098B0F5A06F01D0002DF2D0DF
:1059D0003120FFF7CEFF08B1012400E0002420466B
:1059E00038BD01460020A14A106820F0F80040EAC6
:1059F000C10010607047A04908607047024600204F
:105A00009A4B586820F47C1042EA01031843974BE4
:105A10005860704798490866704701460020934ACD
:105A2000506820F003000843506070478F4840687A
:105A300000F00C007047014600208C4A506820F0AE
:105A4000F00008435060704701460020874A5068C4
:105A500020F4E06008435060704701460020834A0C
:105A6000506820F4605040EAC1005060704729B18E
:105A70007E4A527A02437D4B5A7204E07B4A527A44
:105A800082437A4B5A7270477B49D831086070471D
:105A900001460020754A506820F440400843506099
:105AA00070470021714A20321170704A82F820102C
:105AB000012802D004280AD104E001216B4A2032D7
:105AC000117005E00521694A2032117000E000BF25
:105AD00000BF70476949086070476449096A01431B
